:020000040800F2
:1000000060040020C10100089B180008D90B0008FB
:100010009918000811080008452700080000000092
:10002000000000000000000000000000552400084F
:1000300009090008000000009D180008A925000813
:10004000DB010008DB010008DB010008DB01000820
:10005000DB010008DB010008DB010008DB01000810
:10006000DB010008DB010008DB010008DB01000800
:10007000DB010008DB010008DB010008DB010008F0
:10008000DB010008DB010008DB010008DB010008E0
:10009000DB010008DB010008DB010008DB010008D0
:1000A000DB010008DB010008DB010008DB010008C0
:1000B000DB010008DB010008DB010008DB010008B0
:1000C000DB010008DB010008DB010008DB010008A0
:1000D000DB010008DB010008DB010008DB01000890
:1000E000DB010008DB010008DB010008DB01000880
:1000F000DB010008DB010008DB010008DB01000870
:10010000DB010008DB010008DB010008DB0100085F
:10011000DB010008DB010008DB010008DB0100084F
:10012000DB010008DB010008DB010008DB0100083F
:10013000DB010008DB010008DB010008DB0100082F
:10014000DB010008DB010008DB010008DB0100081F
:10015000DB010008DB010008DB010008DB0100080F
:10016000DB010008DB010008DB010008DB010008FF
:10017000DB010008DB010008DB010008DB010008EF
:10018000DB010008DB010008DB010008DB010008DF
:10019000DB010008DB010008DB010008DB010008CF
:1001A000DB010008DB010008DB010008DFF80CD0F0
:1001B00000F00CFB0048004771300008600400208C
:1001C0000648804706480047FEE7FEE7FEE7FEE7F1
:1001D000FEE7FEE7FEE7FEE7FEE7FEE7092600088A
:1001E000AD0100082DE9FE4F804681EA0300C00FF3
:1001F0000C46009021F0004123F00045B8EB0200CE
:10020000A94105D24046214690461C460B4602466F
:1002100023F00040104347D0270DC7F30A00C3F373
:100220000A510290401A019040286BDAC3F3130080
:1002300040F4801B0098924620B10023D2EB030AC1
:1002400063EB0B0B01985946C0F14002504600F099
:1002500066F906460D4650465946019A00F06EF979
:1002600010EB08006141002487EA115284EAE77329
:100270001A4340D0009A62B3019A012A4FEA07520A
:1002800015DC001B61EB02014FF0004202EA07524D
:10029000CDE90042001C41F5801132462B4600F0AA
:1002A000A5F903B0BDE8F08F40462146F9E7001BF1
:1002B00061EB0201001C41F5801300185B4120181E
:1002C000A2F5001747EB030140EAD570B6196D415E
:1002D00011E06D084FEA360645EAC0754FEA07524D
:1002E000001B61EB0201001C41F5801149084FEA37
:1002F00030000019514132462B4603B0BDE8F04FA3
:1003000000F065B90098012240000023D0EB020202
:1003100063EBE073009821464FEAE074B8EB00000D
:1003200061EB0401E9E783F000435BE781F0004102
:1003300058E72DE9F04D81EA030404F0004B21F069
:10034000004514464FF0000A23F0004150EA050230
:1003500020D054EA01021DD0C5F30A570246C5F366
:100360001303C1F31300C1F30A5640F4801543F49C
:100370008013A7EB0608101BD64608F2FD3873EB76
:10038000050002D308F1010801E092185B41B8F1C1
:10039000000F03DA00200146BDE8F08D00204FF485
:1003A0008011064684460EE0171B73EB050705D344
:1003B000121B63EB050306434CEA010C49084FEAA4
:1003C000300092185B4150EA0107EDD152EA030078
:1003D00012D082EA040083EA0501084305D0101B0D
:1003E000AB4106D20122002306E000224FF0004379
:1003F00002E06FF0010253101AEB06004CEB0851BB
:1004000010EB0A0041EB0B01BDE8F04D00F0DFB846
:100410000EB5C10F80EAE0700844CA07002140F21F
:1004200033438DE80E000A460B4600F0DFF803B0B8
:1004300000BD00F0004230F000400AD0C10D01F5CF
:100440006071C0F3160042EA0151C208400711432F
:10045000704700200146704701F0004330B421F09E
:10046000004150EA010206D00A0DA2F56072C1F304
:100470001301002A02DC30BC00207047440F44EA1C
:10048000C104C100E01830BC00EBC25000F068B8F5
:1004900030B50B46014600202022012409E021FA54
:1004A00002F59D4205D303FA02F5491B04FA02F551
:1004B0002844151EA2F10102F1DC30BD2DE9F05FE8
:1004C0000546002092469B468846064681464024C3
:1004D0001BE0284641464746224600F089F953462C
:1004E0005A46C01A914110D311461846224600F0D0
:1004F00016F82D1A67EB01084F462246012000210D
:1005000000F00DF817EB00094E41201EA4F1010484
:10051000DFDC484631462A464346BDE8F09F202AA4
:1005200004DB203A00FA02F1002070479140C2F14A
:10053000200320FA03F3194390407047202A06DB7A
:10054000CB17203A41FA02F043EAE07306E041FAA1
:1005500002F3D040C2F1200291400843194670478F
:100560000029A8BF7047401C490008BF20F00100C7
:10057000704710B4B0FA80FC00FA0CF050EA0104A5
:1005800004BF10BC704749B1CCF1200421FA04F437
:1005900011FA0CF118BF012121430843A3EB0C0110
:1005A000CB1D4FEA00614FEA102042BF002010BC73
:1005B000704700EBC35010440029A4BF10BC704723
:1005C000401C490008BF20F0010010BC704710B566
:1005D000141E73F1000408DA401C41F10001921866
:1005E0005B411A4301D120F0010010BD2DE9F04D0F
:1005F00092469B4611B1B1FA81F202E0B0FA80F264
:1006000020329046FFF78BFF04460F4640EA0A006F
:1006100041EA0B0153465A46084313D0114653EAA8
:10062000010019D0C8F14002504600F0E1F805463B
:100630000E46504659464246FFF771FF084305D023
:10064000012004E020463946BDE8F08D0020054336
:1006500046EAE0762C4337430A986305E40AA0EBA8
:1006600008000022FD0A44EA47540A3002D500205F
:100670000146E9E7010510196941DDE9084500195E
:100680006941BDE8F04DA2E72DE9FE4F81EA030480
:1006900004F0004421F0004100944FF0000B23F0DF
:1006A000004350EA01045ED052EA03045BD0C3F376
:1006B0000A54C1F30A552C44A4F2F3340194A0FB6C
:1006C0000254C1F3130141F48011C3F3130343F443
:1006D000801301FB024400FB034E840A970A44EA9C
:1006E000815447EA8357A4FB076802958D0A05FBEE
:1006F00007854FEA932C04FB0C542705029D4FEA13
:10070000065847EA1637B5EB08056EEB070C870E5F
:10071000920E47EA811742EA8312A7FB0201B6EB69
:100720000B0164EB00042B0D43EA0C335E1844EB21
:100730001C50DA465146E7FB0201C5F313044FEAA9
:100740000B3343EA14534FEA0432019C43EA060395
:10075000A4F10C040294009CCDE900B4FFF746FF1D
:1007600003B0BDE8F08F00200146F9E7C1F30A525B
:10077000C1F3130140F2FF3341F480119A4202DACF
:1007800000200146704740F233439A42A2F23342BE
:1007900002DC524200F02CB8FFF7C1BE30B5041E97
:1007A00071F1000404DB4FF00044404264EB0101AE
:1007B000141E73F1000405DB1C464FF00043524247
:1007C00063EB0403994208BF904230BD064C074DCD
:1007D00006E0E06840F0010394E807009847103411
:1007E000AC42F6D3FFF7E6FCDC450008FC45000808
:1007F000202A04DB203A21FA02F00021704721FA76
:1008000002F3D040C2F120029140084319467047DC
:10081000FEE710B50121CC05204601F04FF8204637
:10082000BDE81040002101F049B800000146002059
:10083000024A52680A4200D00120704700B00240CC
:1008400030B500242A4B19682A4A114019601968EA
:10085000026811431960596B21F007015963596B04
:100860004268114359634168002928D001292DD0DD
:10087000022930D0032933D0C1680A010169090275
:10088000446924038568214315430D43996B0D4347
:100890009D638169D963196C6FF30D011964196C3B
:1008A000C26911431964818C09045A6C02F04042F8
:1008B0005A645A6C006A02430A435A6430BDC168E4
:1008C0000A02018A0904047D2406DBE7C1680A02E2
:1008D000018A0904D6E7C1684A010169C902D1E762
:1008E000C1684A01016989024469E403CAE700005A
:1008F00000B00240FCE0FCFF0248016841F0010149
:100900000160704700B002407047000070B586B0CB
:100910000121084600F0C4FF0121102001F006F873
:100920001E4E07220A21304600F03CF90722092119
:10093000304600F037F900248DF8164001208DF87C
:10094000170002258DF81450410204918DF81550BE
:1009500004A9304600F0E8F88DF8145068020490BD
:1009600004A9304600F0E0F84FF4E1300090ADF813
:100970000440ADF80640ADF80840ADF80C400C203E
:10098000ADF80A00064C6946204601F079FE0121C7
:10099000204601F061FE06B070BD0000000002407C
:1009A0000010014001B503480099416041680029E9
:1009B000FCD108BD3800002000224FF02043102851
:1009C0000AD0B0F5807F09D0B0F5805F09D0D3F8A8
:1009D0005801814309D107E0586EFAE7D3F8840043
:1009E000F7E7D3F8A400F4E70122104670470000AF
:1009F000D0E9001211438268C068521E520142EAD7
:100A0000402001430148016070470000500100A0F0
:100A100070B50468A100A1F1C041D1F84011CE0B1E
:100A2000F603D0E901121143D0E903231A4311431D
:100A30004269C36911438269056A11431943426AD5
:100A40002943114331434FF02046002C3CD0D6F8C7
:100A500040416FF30E042B4322431343C6F8403149
:100A600002689200A2F1C042C2F84011016871B35D
:100A70008900A1F1C041D1F8481101F07043816AA9
:100A80000A684C68521E641E42EA04148A68521EA8
:100A900044EA02240A8A521E44EA02421A43D6F861
:100AA000483103F07043CC68898A641E2403491ED0
:100AB00044EA01511943C6F8481100688000A0F1CA
:100AC000C040C0F8482170BDC6F84011CEE7FFE72E
:100AD000D6F8481101F07041806A02684368521EDE
:100AE0005B1E42EA03138268521E43EA0223C26875
:100AF000521E43EA0233028A521E43EA0243828AAA
:100B0000007E521E43EA0252401E42EA0060084341
:100B1000C6F8480170BD000002490A6842EA400078
:100B200008607047540100A02DE9F0410022012720
:100B30004FF0030C07FA02F50B682B40AB422CD1A7
:100B4000066853000CFA03F4A64306600E79D0F849
:100B500000809E4046EA080606600E79012E01D00C
:100B6000022E12D18668A64386604E79D0F808809E
:100B70009E4046EA080686604668AE434660456881
:100B80008E799640B6B235434560C568A543C560C9
:100B9000CC799C40C3681C43C460521C102AC9D342
:100BA000BDE8F08110B54B07DB0E9A40C90800EB99
:100BB0008100016A0F249C40A1430162016A114334
:100BC000016210BD4183704701837047014800886E
:100BD0007047000048000020FEE7002904D001888B
:100BE00041F4806101807047018821F480610180B7
:100BF0007047C94381827047002904D0018841F0C1
:100C0000010101807047018821F0010101807047D6
:100C100010B5154988420AD101214C05204600F043
:100C200077FE2046BDE81040002100F071BE0F495C
:100C300088420AD101218C05204600F069FE204639
:100C4000BDE81040002100F063BE094988420AD186
:100C50000121CC05204600F05BFE2046BDE8104097
:100C6000002100F055BE10BD005400400058004067
:100C7000005C0040002904D0018841F480710180AB
:100C80007047018821F4807101807047002904D0E9
:100C9000018841F4007101807047018821F40071DE
:100CA000018070470CB50246002000920A0F0192A5
:100CB00021F07F41019A002A03D0009A1432009259
:100CC00003E0090C009A18320092009A12680A4256
:100CD00000D001200CBD00007FB504460D46A08861
:100CE00020F03F06684600F02FFE02982749B0FB2F
:100CF000F1F189B20E43A680228822F001022280FF
:100D0000234B2A689A4209D85200B0FBF2F080B215
:100D1000042800D20420491C218423E0EB88A3F599
:100D20003F46FF3E0BD002EBC20303EB0212B0FBC7
:100D3000F2F080B240F48040020506D007E002EBFA
:100D40004202B0FBF2F080B2F6E740F0010040F45E
:100D500000404FF4967251434FF47A72B1FBF2F1B6
:100D6000491C2184A083208840F001002080208835
:100D70004FF6F5310840A9886A8911430143218063
:100D8000A8892989084320817FBD000040420F00C7
:100D9000A086010008B500900098084400900098D3
:100DA000008808BD008AC0B27047002A02D041F016
:100DB000010101E001F0FE010182704701827047EC
:100DC000002904D0018841F4004101807047018866
:100DD000C1F30E01018070477FB50546174C012114
:100DE0002046FFF753FF01212046FFF7E9FF0021CE
:100DF0002046FFF7E5FF2046FFF70AFF0020ADF889
:100E000004004BF6FF72ADF80620ADF8080020157F
:100E1000ADF80A000001ADF80C000948009001216E
:100E20002046FFF7E9FE69462046FFF755FF2946B1
:100E300004A001F089FC04B0012070BD0054004002
:100E4000801A06003C3C2D4932432D4552524F52E8
:100E50002D3E3E204932432063616C6C6261636BBE
:100E6000206572726F7220636F6465203D20256477
:100E70000A00000030B587B00121480500F03AFDB6
:100E80000121022000F00CFD4020059002208DF889
:100E9000180003208DF8190001208DF81A00002495
:100EA0008DF81B40194D042206212846FFF77AFED3
:100EB00005A92846FFF738FE802105910422072165
:100EC0002846FFF76FFE05A92846FFF72DFE104DB7
:100ED0002846FFF79DFEADF808404BF6FF71ADF8D0
:100EE0000A10ADF80C402915ADF80E100901ADF847
:100EF00010100849019101212846FFF77DFE01A944
:100F00002846FFF7E9FE07B030BD000000040240AC
:100F100000540040801A060070B58AB0C0F3074440
:100F2000C0F30725C6B2FFF774FC4FF440300090C1
:100F3000012001900494039502960F2005900B4820
:100F400080680690002007904FF4F07008904FF4EE
:100F5000487009906846FFF773FCFFF7CDFC02204C
:100F6000FFF764FC0028FAD00AB070BD240000200E
:100F700010B4203AD3B2054A12691468D2885A4391
:100F800004EB420210BC00F025B800002400002051
:100F90002DE9F04180460D4600240D4E4FF4487770
:100FA00008E021464046FFF7E3FF3069808820448F
:100FB00084B26D1CBC4208D22A78002A05D0306960
:100FC0008188081980B28842EBD2BDE8F081000028
:100FD000240000202DE9F04300254FF41663584308
:100FE000DFF88880D8F808C0D8F8107038E00023FF
:100FF0002EE00C26B4FBF6F6F6004FF0800909FA55
:1010000006F932F8156049FA03F919EA060F01D119
:101010000C2C08D94FF0010909FA03F916EA090F57
:101020000BD10C2C09D901EB41066644D8F80440D9
:1010300034520644240CB47008E001EB41066644C7
:10104000D8F8004034520644240CB470491C5B1C90
:10105000BC889C42CDD8BB88C3F5487319446D1C2D
:10106000FB88AB42C3D8BDE8F08300002400002019
:101070002DE9FC5F012140F2FF1000F011FC4FF060
:101080000408CDF8008002208DF805008DF80400DA
:1010900000208DF806008DF807006946AA48FFF782
:1010A00043FD0E220221A848FFF77CFD4FF00809FE
:1010B000CDF800906946A448FFF736FD0E220321C3
:1010C000A148FFF76FFD4FF4807ACDF800A0694684
:1010D0009D48FFF729FD0E2208219B48FFF762FD7E
:1010E0000124009469469948FFF71EFD092200215A
:1010F0009648FFF757FD4FF4006BCDF800B06946F6
:101100009348FFF711FD0E220B219148FFF74AFD8E
:101110002003009069468E48FFF706FD0E220C2141
:101120008B48FFF73FFD0220009069468748FFF794
:10113000FBFC092201218548FFF734FD402500957D
:1011400069468448FFF7F0FC0E2206218148FFF72C
:1011500029FD2020009069467F48FFF7E5FC0E221C
:1011600005217D48FFF71EFD009569467A48FFF787
:10117000DBFC0E2206217848FFF714FD6003009087
:1011800069467148FFF7D0FC0E220D216E48FFF72B
:1011900009FDA602009669466E48FFF7C5FC0922C4
:1011A0000A216C48FFF7FEFCE003009069466648A0
:1011B000FFF7BAFC0E220F216348FFF7F3FC0094FF
:1011C00069466648FFF7B0FC0E2200216348FFF72E
:1011D000E9FC8027009769466148FFF7A5FC0E22CD
:1011E00007215F48FFF7DEFCCDF8008069465B48C9
:1011F000FFF79AFC0E2202215848FFF7D3FC4FF06C
:101200001008CDF8008069465348FFF78DFC0E2288
:1012100004215148FFF7C6FC2003009069464D4861
:10122000FFF782FC0E220C214A48FFF7BBFC009519
:101230004C4D69462846FFF777FC0E2206212846CA
:10124000FFF7B0FCCDF800B069464248FFF76CFCF0
:101250000E220B213F48FFF7A5FCCDF80080694620
:101260003E48FFF761FC0E2204213C48FFF79AFC40
:10127000CDF8009069463648FFF756FC0E22032150
:101280003348FFF78FFCCDF800A069462F48FFF7E1
:101290004BFC0E2208212D48FFF784FC4FF4007907
:1012A000CDF8009069462948FFF73EFC0E2209213F
:1012B0002648FFF777FC009769462648FFF734FC7D
:1012C0000E2207212348FFF76DFC0096694623484C
:1012D000FFF72AFC0E220A212048FFF763FCCDF815
:1012E000009069461D48FFF71FFC0E2209211B488C
:1012F000FFF758FC00961C4E69463046FFF714FC79
:101300000E220A213046FFF74DFCCDF80080022066
:101310008DF805008DF8044000208DF806008DF84A
:10132000074069462846FFF7FFFB009769462846B5
:10133000FFF7FAFB10212846FFF746FC80212846DC
:10134000FFF742FCBDE8FC9F001C02400004024085
:10135000000002400018024000100240002002403D
:1013600000080240000C02400014024001480069DD
:10137000704700002400002000B58FB001218806CE
:1013800000F0D4FA0121C80500F08AFAFFF770FED8
:1013900000F024FD002000900190029003900C903A
:1013A0000D900E90062207214FF4D07000F04AFBFA
:1013B0004FF4003000F036FB012000F03DFB3D20F3
:1013C00000F014FB0028FAD00620049001200590BC
:1013D00018200690032007904FF44E70089040F2BA
:1013E000E310099040F242300A9040F2E7100B906F
:1013F000684600F0E9F8012000F0C6F80FB000BD23
:1014000030B591B0192001904FF44E700290042035
:10141000039040F2E310049001200590FF20069015
:1014200000200790089009900A904FF480600B907C
:1014300005200C9040F663100E90C01E0F904FF4E4
:10144000F07010904FF050400D90144C01A92046C0
:1014500000F01CF912490D914FF4C0610B91072166
:101460000C910E4D01A98035284600F00FF901209E
:1014700000F058F90121204600F0FCF8012128462F
:1014800000F0F8F8012000F04DF9064800F012F8DD
:10149000012000F089F811B030BD000084680140DF
:1014A000009411D040000020014A10605160704744
:1014B000240000200149086170470000240000203A
:1014C0000649002804D0064888600120C86070479B
:1014D0004FF0504088600020C86070472400002012
:1014E000009411D010B50949C968002908D00146F7
:1014F000074800F0BDF8BDE81040012000F012B927
:1015000001460348803800F0B3F8F4E724000020D7
:10151000046901402DE9FC410121882000F0C0F957
:101520004FF48065009501218DF8041000208DF89E
:1015300006008DF807108DF80500114F69463846F2
:10154000FFF7F2FA6C00009469463846FFF7ECFAB0
:101550006600009669463846FFF7E6FA0094094FA0
:1015600069463846FFF7E0FA054918310D800C80CE
:101570000E8021463846FFF725FBBDE8FC810000C0
:10158000001C0240000C02400649002804D00868F4
:1015900040F0010008607047086820F00100086012
:1015A00070470000186801400649002804D0086808
:1015B00040F4803008607047086820F4803008608C
:1015C000704700001868014030B5264A1368264964
:1015D0000B401360038A1B04146845692C431C43A9
:1015E0001460121D13680B401360038B1B041468F6
:1015F000C5692C431C431460121D13680B40136013
:10160000038C1B041468456A2C431C431460121D90
:1016100013680B401360018D09041368C46A2343E7
:101620000B431360111D0A68104B1A400A60D0E981
:1016300000231A43D0E9023423431A430B681A43A8
:101640000A60416B0A02018E0B04064924310C68C2
:1016500004F07F440C600C68806B134304431C430C
:101660000C6030BD0868014000F800F08F88FE0F64
:1016700041617047002904D0016841F00101016017
:101680007047016821F001010160704770B58A88D8
:101690001204436803F4704343600B6813434360D0
:1016A0008A891204836803F4704383608B68134350
:1016B0008360026922F0070202610A690261CA6955
:1016C00013020A8C120491F824402406856900252F
:1016D00085618E6922431E4316438661426922F06A
:1016E000FF0242614A694261C26940F207739A434C
:1016F000C261D1E90A231A43C261826A85620A6B18
:1017000082620A8F1204C36A03F0E023C3624B6B48
:101710001343C362026B6FF30A020263C96B016376
:1017200070BD000001490860704700002468014056
:101730001CB50446062269463B2000F07EF89DF861
:1017400001009DF8001040EA012020809DF8030070
:101750009DF8021040EA012060809DF805009DF888
:10176000041040EA0120A0801CBD1CB504460622DE
:101770006946432000F061F89DF801009DF80010D3
:1017800040EA012020809DF803009DF8021040EA05
:10179000012060809DF805009DF8041040EA0120BA
:1017A000A0801CBD08B5002000900122694675206C
:1017B00000F043F89DF80010682904D0044800F0B8
:1017C000C3FF002008BD03A000F0BEFF012008BD3C
:1017D000804500083C3C2D4932432D494E464F2D53
:1017E0003E3E204D505536303530204944203D2076
:1017F00025640D0A0A00000010B500214FF47A722A
:101800000020401C9042FCDB491C9142F8DB002187
:101810006B2000F039F80721192000F035F8062177
:101820001A2000F031F801211C2000F02DF81821B9
:10183000BDE810401B2000F027B80B460146682089
:1018400000F009BE38B50446022269464120FFF780
:10185000F4FF9DF801009DF8001040EA012000B25D
:10186000FEF7D6FD0022054BFEF763FD044A054B4B
:10187000FEF7B8FCFEF7F0FD206038BD0040754073
:10188000A4703D0AD743424013B5014601AB012283
:10189000682000F0FFFD1CBDFEE7704770470000A8
:1018A000054A002903D0116801431160704711688F
:1018B000814311607047000030380240054A00291A
:1018C00003D01168014311607047116881431160B2
:1018D0007047000010380240054A002903D0116803
:1018E0000143116070471168814311607047000027
:1018F00038380240054A002903D0116801431160BD
:101900007047116881431160704700004038024001
:10191000054A002903D0116801431160704711681E
:10192000814311607047000020380240054A0029B9
:1019300003D0116801431160704711688143116041
:10194000704700004438024070B5244B196801F01C
:101950000C01234C00291ED0224E04291DD0082939
:101960001DD00460196801F0F00109091E4A545C99
:101970000168E14041601C6804F4E054A40A145D6D
:1019800021FA04F484601B6803F460435B0BD25CAF
:10199000D140C16070BD0460E4E70660E2E70F4A31
:1019A000121F1168C1F38055116801F03F0135B174
:1019B000B6FBF1F11468C4F38814614305E0B4FB8D
:1019C000F1F11468C4F3881461431268C2F3014250
:1019D000521C5200B1FBF2F10160C3E7083802402B
:1019E0000024F40040787D0114000020024600200D
:1019F000510901290BD002290DD00949096802F0CB
:101A00001F02012393400B4200D00120704704497C
:101A100074390968F3E70249091F0968EFE7000014
:101A200074380240034A116821F4403101431160C7
:101A3000704700008C380240014908677047000079
:101A400000004742800140EA0160024940EA02701A
:101A500008607047883802402DE9FC5F0121FC20B6
:101A6000FFF71EFF02208DF804008DF8050000200E
:101A70008DF806008DF80700012000906946D148D6
:101A8000FFF752F80C220021CE48FFF78BF8022016
:101A900000906946CB48FFF747F80C220121C9485E
:101AA000FFF780F8042000906946C648FFF73CF82D
:101AB0000C220221C348FFF775F808200090694600
:101AC000C048FFF731F80C220321BE48FFF76AF83F
:101AD000102700976946BB48FFF726F80C2204211F
:101AE000B848FFF75FF84FF02008CDF8008069464E
:101AF000B448FFF719F80C220521B248FFF752F855
:101B00004FF48059CDF800906946AE48FFF70CF8C5
:101B10000C221146AB48FFF745F84FF4005ACDF8B8
:101B200000A06946A748FEF7FFFF0C220D21A5483B
:101B3000FFF738F8BD0200956946A248FEF7F4FFAA
:101B40000C220E219F48FFF72DF86C000094694687
:101B50009C48FEF7E9FF0C220F219A48FFF722F874
:101B60000120009069469848FEF7DEFF0C22002114
:101B70009548FFF717F80220009069469248FEF753
:101B8000D3FF0C2201219048FFF70CF8009569461D
:101B90008E48FEF7C9FF0C220E218C48FFF702F891
:101BA000009469468948FEF7BFFF0C220F21874841
:101BB000FEF7F8FF0120009069468448FEF7B4FF65
:101BC0000C2200218148FEF7EDFF022000906946BB
:101BD0007E48FEF7A9FF0C2201217C48FEF7E2FFB8
:101BE0004FF0800BCDF800B069467948FEF79CFFB6
:101BF0000C2207217648FEF7D5FFE61100966946CC
:101C00007348FEF791FF0C2208217148FEF7CAFFC6
:101C1000A011009069466E48FEF786FF0C2209214C
:101C20006B48FEF7BFFF6011009069466848FEF7F9
:101C30007BFF0C220A216648FEF7B4FF20110090BA
:101C400069466348FEF770FF0C220B216048FEF7DF
:101C5000A9FFCDF8009069465D48FEF765FF0C22AC
:101C600011465B48FEF79EFFCDF800A06946584834
:101C7000FEF75AFF0C220D215548FEF793FF009501
:101C800069465348FEF750FF0C220E215048FEF7DC
:101C900089FF009469464E48FEF746FF0C220F214B
:101CA0004B48FEF77FFF009669464848FEF73CFF29
:101CB0000C2208214548FEF775FFA01100906946E7
:101CC0004248FEF731FF0C2209214048FEF76AFF27
:101CD0006011009069463D48FEF726FF0C220A215C
:101CE0003A48FEF75FFF402000903A4D694628468B
:101CF000FEF71AFF0C2206212846FEF753FF009735
:101D000069463148FEF710FF0C2204212E48FEF7E9
:101D100049FFCDF8008069462B48FEF705FF0C22ED
:101D200005212948FEF73EFF012000902A4F694611
:101D30003846FEF7F9FE0C2200213846FEF732FF46
:101D40002011009069461F48FEF7EEFE0C220B2181
:101D50001C48FEF727FF009469461B48FEF7E4FE87
:101D60000C220F211848FEF71DFF00966946164801
:101D7000FEF7DAFE0C2208211348FEF713FFCDF818
:101D800000B069462846FEF7CFFE0C220721284600
:101D9000FEF708FF0220009069460D48FEF7C4FEDA
:101DA0000C2201210A48FEF7FDFE01200090694641
:101DB0000748FEF7B9FE0C2200210548FEF7F2FEA7
:101DC000BDE8FC9F0014024000180240000C0240D5
:101DD00000100240001C02400008024000B593B011
:101DE000FFF73AFE01210846FFF776FD0220019039
:101DF0000722029204210391049205900690079015
:101E000001200890002009900A9110210B91402197
:101E10000C914FF4C0710D910E904FF400610F9131
:101E200010908800119001A8129008A8FEF7F0FD0C
:101E300000F002F813B000BD2DE9FF410125009527
:101E40000826019602950024039420210120FEF724
:101E5000B3FD0028F9D16846FEF7CAFD0A2000F05C
:101E600041F8022000900196029503942021012060
:101E7000FEF7A2FD0028F9D16846FEF7B9FD032060
:101E80000090019604270297039420210120FEF779
:101E900093FD0028F9D16846FEF7AAFD2021012014
:101EA000FEF78AFD0028F9D16846FEF7A1FD40F251
:101EB0003120009701960295039020210120FEF722
:101EC0007BFD0028F9D16846FEF792FD40F26A508A
:101ED000FEF722FE20210120FEF76EFD0028F9D139
:101EE000BDE8FF8101B581B00549019848430090E4
:101EF00002E00098401E009000980028F9D10CBD27
:101F0000A08601002DE9FF4F83B0044616461D460A
:101F100000200290F54801904FF40039DFF8D0B36B
:101F200009E00198411E019105D207B00720BDE8E4
:101F3000F04FFEF751BF49465846FEF7B3FE002862
:101F4000EFD101215846FEF795FE4FF4617ACDF8A6
:101F500004A0E84F09E00199481E019005D207B09E
:101F60000820BDE8F04FFEF737BF39465846FEF768
:101F700099FE0128EFD14FEA440808F0FF01002242
:101F80005846FEF712FFCDF804A0DA4C641C09E0B5
:101F90000198411E019105D207B00920BDE8F04F1C
:101FA000FEF71ABF21465846FEF77CFE0128EFD106
:101FB00014215846FEF7EEFE18215846FEF7EAFEB9
:101FC000CDF804A009E00198411E019105D207B0A7
:101FD0000A20BDE8F04FFEF7FFBEC649C4487F3176
:101FE000FEF760FE0128EED1C1480499FEF7E6FE37
:101FF000CDF804A0DFF8F8B209E00198411E019184
:1020000005D207B00B20BDE8F04FFEF7E5BEB94999
:1020100058467F31FEF746FE0128EED10121584691
:10202000FEF728FECDF804A009E00198411E0191B9
:1020300005D207B00C20BDE8F04FFEF7CDBE394603
:102040005846FEF72FFE0128EFD15F4608F0FF014A
:1020500001223846FEF7A9FECDF804A009E0019858
:10206000411E019105D207B00D20BDE8F04FFEF7EB
:10207000B3BE21463846FEF715FE0128EFD1DFF842
:1020800074B2012E0BF13F0B0FD0022E35D0032E70
:1020900065D014213846FEF77DFE18213846FEF73C
:1020A00079FE0024A6F10308F9E000213846FEF786
:1020B00094FD14213846FEF76DFE18213846FEF7D0
:1020C00069FE01213846FEF7E1FDCDF804A009E0E4
:1020D0000199481E019005D207B00E20BDE8F04FCF
:1020E000FEF77ABE59463846FEF7DCFD0128EFD1EF
:1020F0003846FEF757FE2870D3E000213846FEF739
:102100006CFD388840F40060388014213846FEF7B2
:1021100041FE18213846FEF73DFECDF804A0754C6F
:10212000E41C09E00199481E019005D207B00F2078
:10213000BDE8F04FFEF750BE21463846FEF7B2FD2F
:102140000128EFD101213846FEF7A0FD3846FEF701
:1021500029FE28703846FEF725FE6870A1E014219C
:102160003846FEF717FE18213846FEF713FECDF865
:1021700004A0604CE41C09E00199481E019005D2BE
:1021800007B01020BDE8F04FFEF726BE21463846C6
:10219000FEF788FD0128EFD100213846FEF71DFD2E
:1021A0003846FEF7FFFD287001213846FEF76EFD28
:1021B0003846FEF7F7FD6870CDF804A009E00199F4
:1021C000481E019005D207B01120BDE8F04FFEF780
:1021D00003BE59463846FEF765FD0128EFD1384663
:1021E000FEF7E0FDA8705CE0444540D1CDF804A0C6
:1021F000404EF61C09E00199481E019005D207B037
:102200001020BDE8F04FFEF7E7BD31463846FEF737
:1022100049FD0128EFD100213846FEF7DEFC3846A3
:10222000FEF7C0FD01462046641C295401213846B2
:10223000FEF72CFD3846FEF7B5FD661C2855CDF897
:1022400004A009E00199481E019005D207B01120B1
:10225000BDE8F04FFEF7C0BD59463846FEF722FDF7
:102260000128EFD13846FEF79DFDA85519E0CDF8BD
:1022700004A009E00198411E019105D207B0122087
:10228000BDE8F04FFEF7A8BD59463846FEF70AFDF7
:102290000128EFD13846FEF785FD2855641CB4426D
:1022A000A2D314493846C91CFEF7A3FC0F4901917B
:1022B00009E00198421E019205D207B01320BDE843
:1022C000F04FFEF789BD49463846FEF7EBFC002883
:1022D000EFD101213846FEF780FC398821F40061F6
:1022E0003980029807B0BDE8F08F0000B01E0400EE
:1022F00000540040010000102DE9F84F81460C46C3
:10230000174698464FF0000A4F4800904FF40036A9
:102310004E4D08E00098411E009104D2BDE8F84FF0
:102320000120FEF759BD31462846FEF7BBFC0028C8
:10233000F0D101212846FEF79DFC4FF4617600960E
:10234000DFF80CB108E00098411E009104D2BDE80E
:10235000F84F0220FEF740BD59462846FEF7A2FC82
:102360000128F0D14FEA4960010E00222846FEF70D
:102370001CFD0096DFF8D89009F1010908E00098EB
:10238000411E009104D2BDE8F84F0320FEF724BDA2
:1023900049462846FEF786FC0128F0D1142128463C
:1023A000FEF7F8FC18212846FEF7F4FC0096DFF84B
:1023B000A09009F17F0908E00098411E009104D225
:1023C000BDE8F84F0420FEF707BD49462846FEF752
:1023D00069FC0128F0D121462846FEF7EFFC0024D5
:1023E00016E0009608E00098411E009104D2BDE876
:1023F000F84F0520FEF7F0BC49462846FEF752FC90
:102400000128F0D118F804102846FEF7D7FC641C08
:10241000BC42E6D300960E4CE41C08E00098421E35
:10242000009204D2BDE8F84F0620FEF7D5BC214645
:102430002846FEF737FC0128F0D101212846FEF797
:1024400025FC5046BDE8F88FB01E04000054004043
:102450000100001070472DE9F04706460F469046F0
:1024600099460024FEF7B2FB05464B4642463946E4
:102470003046FFF747FD00280AD0002D08D021463E
:10248000641CE4B2042903D82846FEF78BFAECE773
:10249000BDE8F0872DE9F04706460F46904699467D
:1024A0000024FEF793FB05464B464246394630462C
:1024B000FFF722FF00280AD0002D08D02146641C17
:1024C000E4B2042903D82846FEF76CFAECE7BDE82D
:1024D000F08700001CB50021019100912E4A106880
:1024E00040F4803010604FF4A043106800F40030D6
:1024F00000900198401C0190009810B901989842F2
:10250000F3D11068800302D50120009000E0009113
:10251000009801283FD120484030016841F08051A7
:1025200001601E49086840F4404008601A480830BD
:1025300003680360036843F400430360036843F4E3
:10254000A0530360041F164B2360136843F080738D
:10255000136013689B01FCD50A6842F480320A605C
:102560004A68D203FCD50A6842F400320A604A681D
:102570009203FCD50B4A40F205711160016821F00D
:1025800003010160016841F0020101600168C1F3CB
:1025900081010229FAD11CBD0038024000700040C0
:1025A000195A4007003C02400020064A52F8201009
:1025B00011B1491E42F82010401CC0B20328F5D3C7
:1025C00070470000500000200D484FF47A710068F9
:1025D000B0FBF1F0401EB0F1807F01D301200AE092
:1025E0004FF0E0214861074AF02010700020886118
:1025F000072008610020002800D0FEE77047000097
:102600000000002023ED00E010B50F48016841F004
:10261000010101600C4A00210832116002680B4B75
:102620001A400260031D0A4A1A60026822F48022DE
:10263000026005480C300160FFF74CFF05494FF080
:102640000060086010BD000000380240FFFFF6FE89
:102650001030002408ED00E0002904D0818941F405
:10266000005181817047818921F400518181704737
:102670000246002012880A4200D001207047000064
:102680007FB504460D46208A20F44051E88808436F
:102690002082A08941F20C618843A9882A891143CC
:1026A0006A8902431143A181A08A20F44071A8895C
:1026B0000843A0826846FFF747F91E48844202D0CB
:1026C0001D48844201D1039800E00298A1890904C1
:1026D00008D500EBC00101EB001029684900B0FBF0
:1026E000F1F007E000EBC00101EB00102968890060
:1026F000B0FBF1F06422B0FBF2F109010B096FF0BD
:1027000018056B4300EB8300A3891D044FF03203CF
:1027100007D503EBC000B0FBF2F000F00700084360
:1027200006E003EB0010B0FBF2F000F00F000843EE
:1027300020817FBD0010014000140140C1F3080159
:1027400081807047FEE700000FB4054B10B503A968
:10275000044A029800F0DEF810BC5DF814FB00009B
:102760004D3000084C0000200FB4084B10B504A9F0
:1027700002AA039800F0CEF8044602A9002000F057
:1027800060FC204610BC5DF814FB000043300008DC
:1027900002E008C8121F08C1002AFAD1704770472A
:1027A000002001E001C1121F002AFBD17047000088
:1027B0002DE9FF5FDDE90220010DDDF838B00243AD
:1027C00018D044F61050A1F2FF3141430D140F9878
:1027D000012820D0A5EB0B00401C5FEA000A4FF057
:1027E0000004474EDFF81C91A046504616D5CAF1AA
:1027F000000728E00F98012443A2012808D00021F7
:1028000000980F9BC0E90021C0E90243BDE8FF9F8B
:102810006FEA0B01F4E7CBF10000DEE7074612E0B8
:10282000F80707D02246334640464946FDF72CFFBD
:10283000804689462246334610461946FDF724FF56
:1028400004460E467F10002FEAD1DDE90201BAF1FD
:10285000000F42464B4602DAFDF716FF01E0FDF796
:1028600068FD04460E460022284BFDF797FF03D86B
:102870004FF0FF30014607E00022254B204631464D
:10288000FDF7B0FCFDF772FF102409E0002C0ADB15
:102890000A220023FDF712FE019B30321A55641EF6
:1028A00050EA0102F2D1641C019AC4F111031444EC
:1028B0000F9A012A03D0012208430DD10AE00843F0
:1028C00004D000204FF0110B0F9080E7A3EB0B0515
:1028D0006D1E0DE05B4504DD4FF0000205F10105C2
:1028E00004E003DA4FF00002A5F10105002AECD064
:1028F00000980F99C0E90231C0E9004586E7000061
:10290000000024400000F03F300000000000F043D1
:102910000000E03F2DE9FF4F95B09B4689460646F3
:1029200000250FE2252877D100242746F84A012107
:10293000059400E0044316F8013F203B01FA03F040
:102940001042F7D130782A2811D06FF02F03307859
:10295000A0F13002092A16D8059A44F0020402EBCD
:10296000820203EB42021044761C0590EFE759F80F
:10297000042B0592002A03DA504244F400540590D7
:1029800044F00204761C30782E2816D116F8010F78
:1029900044F004042A280DD06FF02F023078A0F103
:1029A0003003092B09D807EB870302EB4303C71851
:1029B000761CF3E759F8047B761C30786C280FD02E
:1029C00006DC4C2817D068280DD06A2814D104E002
:1029D000742810D07A280FD10DE044F400140AE0D6
:1029E00044F4801401E044F440147278824202D12D
:1029F00004F58014761C761C307866280BD013DC26
:102A0000582877D009DC002875D04528F6D046280C
:102A1000F4D047281AD19DE118E0632835D0642806
:102A200079D0652812D195E1702873D008DC672829
:102A3000F1D069286FD06E280DD06F2806D1B5E08F
:102A400073282CD0752875D0782874D05A461799D9
:102A500090476D1C75E1C4F30250022809D0032889
:102A60000DD0D9F8001004280DD00D6009F104092B
:102A700067E1D9F80010EA17C1E90052F6E7D9F882
:102A800000100D80F2E70D70F0E719F8041B8DF8C7
:102A9000001000208DF80100EA46012003E059F8FB
:102AA00004AB4FF0FF3061074FF0000102D40DE09E
:102AB00008F101018846B9420FDA8045F8DB1AF8BF
:102AC00008100029F4D108E008F10101884681428C
:102AD000FADB1AF808100029F6D105985B46A0EB3E
:102AE000080721463846179A00F094FA284400EB6C
:102AF000080507E04DE029E10DE01AF8010B5A4600
:102B000017999047B8F10108F7D25B46214638463D
:102B1000179A13E142E00A220092C4F302524FF0E6
:102B2000000A022A08D059F804CB032A4FEAEC71B4
:102B30000AD00DE029E02AE009F1070121F007029F
:102B4000F2E802C1914609E00FFA8CFC4FEAEC7101
:102B5000042A03D14FFA8CFC4FEAEC71002907DA02
:102B60000A460021DCF1000C61EB02012D2202E09B
:102B7000220504D52B228DF80420012203E0E20770
:102B800001D02022F7E7904659E00A2102E0102206
:102B90000DE010214FF0000A00910BE010224FF0E1
:102BA000000A44F004040827009203E008224FF0D2
:102BB000000A0092C4F30252022A05D059F804CB4D
:102BC0000021032A08D009E009F1070121F00702DA
:102BD000F2E802C1914605E01FFA8CFC042A01D1FB
:102BE0000CF0FF0C4FF00008220728D5702806D003
:102BF000009B83F0100353EA0A0305D00EE0402245
:102C00008DF80420012208E05CEA010206D030229F
:102C10008DF804208DF8050002229046009B83F079
:102C2000080353EA0A030AD15CEA010201D16207F0
:102C300005D530228DF804204FF001087F1E58285A
:102C400004D034A003900EA802900DE036A0F9E75E
:102C500053466046009AFDF731FC84460398825C37
:102C60000298401E029002705CEA0100F0D10298C6
:102C700006A9081A00F1200A600702D524F480345E
:102C800000E00127574502DDA7EB0A0000E0002025
:102C900000EB0A01009005984144401A0590E003BA
:102CA00006D45B462146179A059800F0B3F905440F
:102CB000002706E001A85A46C05D179990476D1C91
:102CC0007F1C4745F6DBE0030CD55B462146179A8F
:102CD000059800F09FF9054404E030205A46179902
:102CE00090476D1C0099481E00900029F5DC08E013
:102CF000029802995A460078491C02911799904708
:102D00006D1CBAF10001AAF1010AF1DC65E10000D5
:102D100009280100303132333435363738396162B1
:102D20006364656600000000303132333435363775
:102D300038394142434445460000000000F058F94C
:102D40000544761C307800287FF4ECAD19B0284695
:102D5000BDE8F08F620700D4062709F1070222F0D0
:102D6000070CFCE80223E14603F000485FEA080C88
:102D700002D00FF2702C0DE05FEA045C02D50FF276
:102D8000682C07E05FEAC47C02D00FF2602C01E0FF
:102D9000AFF2700C4FF0FF3823F00043CDF850C075
:102DA00065280CD006DC452809D046281DD04728C8
:102DB0003DD13DE0662818D067287ED138E000215B
:102DC000112F01DB112000E0781CCDE9000106A9DC
:102DD0000EA8FFF7EDFCDDE90F010E9A039100212B
:102DE000009207F1010A04914DE04FF00040009776
:102DF000CDE9011006A90EA8FFF7DAFCDDE90F0204
:102E000003920E9B11990022DDF80CA0009304920E
:102E100011B9791C00EB010AB7EB0A0004D4C0F128
:102E2000FF3007F1010A0490AAEB0700019044E08B
:102E3000012F00DA01270021112F01DD112000E010
:102E40003846CDE9000106A90EA8FFF7B1FCDDE97F
:102E50000F010E9A0391002104910092BA462107B6
:102E60000CD40399514500DA8A46BAF1010F05DD09
:102E7000009AAAF10101515C302908D0B84202DA67
:102E800010F1040F06DA0121CDE9011015E0AAF1D5
:102E90000101E9E7002805DC049901440491AAEB4B
:102EA000000102E0411C514500DD8A460499401AA8
:102EB000401C01904FF000400290200704D401987C
:102EC000504501DBCDF8048000208DF84F000298BA
:102ED0000DF14F07B0F1004F25D02B200E90029836
:102EE0004FF0020800280CDA404202902D200E908C
:102EF00007E00A210298FDF7CBFA3031029007F87B
:102F0000011DB8F10001A8F10108F2DC02980028C7
:102F1000EFD1791E0E980870307800F0200040F054
:102F2000450007F8020D12A8C01B00F1070814980D
:102F3000007800B1012000EB0A01019801EBE0717B
:102F400005984144401A401E0590E00306D45B46B4
:102F50002146179A059800F05DF80544149800780A
:102F600018B15A46179990476D1CE00324D55B466B
:102F70002146179A059800F04DF805441CE0049886
:102F8000002807DBDDE90301884203DD0098405C8F
:102F9000179901E0179930205A469047049805F197
:102FA0000105401C04900198401E019004D12E2080
:102FB0005A46179990476D1CBAF10001AAF1010A0F
:102FC000DDDC05E017F8010B5A46179990476D1C98
:102FD000B8F10001A8F10108F4DC5B462146179A1C
:102FE0000598ABE62D0000002B000000200000003B
:102FF0002DE9F041044600251E461746880404D4F6
:1030000005E039462020B0476D1C641EF9D52846DE
:10301000BDE8F0812DE9F041044600251E469046AA
:10302000C80301D5302700E02027880404D505E037
:1030300041463846B0476D1C641EF9D52846BDE8A8
:10304000F0810A68531C0B601070704770B504461D
:10305000064DE1B22846FFF771FB80212846FFF7B5
:1030600007FB0028F9D0204670BD00000010014089
:1030700098B0FFF7A9FAFEF74DFAFEF77DF9FEF7D3
:10308000BFF90120FEF780FA0020FEF719FA0020B0
:10309000FDF742FF0120FEF713FAFF20FEF722FAA8
:1030A0000020FDF739FF00214FF47F00FEF7FCF907
:1030B0005B48FEF7FFF9FEF759F9C08859A1FDF703
:1030C00067FFFEF753F9C0884FF6FF7505EA400029
:1030D0005FA1FDF75DFFFDF719FCFDF7CBFE66A0D4
:1030E000FFF732FB6EA0FFF72FFBFEF785FBFEF725
:1030F00059FB012822D075A0FFF726FB7B494FF42E
:103100008060088041007948801E01808114018020
:103110000021FF20FEF7C8F9FEF728F9C08874A146
:1031200005EA8000FDF734FFFEF720F9C08876A19C
:1031300000EB800080B2FDF72BFFFEE77C4C6AE0DD
:103140006A48801F016881F4006101604FF47A7061
:103150002060606800285ED116A8FEF7E9FABDF984
:103160005C30BDF95A20BDF9581072A0FFF7ECFA97
:1031700014A8FEF7FAFABDF95430BDF95220BDF992
:10318000501071A0FFF7E0FA13A8FEF75BFB13984D
:10319000FDF74FF902460B4670A0FFF7D5FABDF9CF
:1031A0005C000090BDF95A30BDF958206FA101A80C
:1031B000FFF7DAFAFEF7DAF8C08801A9C0EBC00021
:1031C00080B2FDF7E5FEBDF954000090BDF9523024
:1031D000BDF950206BA101A8FFF7C6FAFEF7C6F8AB
:1031E000C08801A905EAC000FDF7D2FE1398FDF7DB
:1031F00020F902460B4669A101A8FFF7B5FAFEF7D0
:10320000B5F8C08801A900EBC00080B2FDF7C0FE90
:103210004FF4FA706060206800289AD190E70000AF
:10322000400000202020202020202020202020548A
:103230006869732069732061204D505536303530F0
:103240002064656D6F2020202020202000000000D9
:10325000202020202020202020202020202020206E
:103260002028426173652056657273696F6E29204C
:1032700020202020202000000D0A20BBB6D3ADCA9C
:10328000B9D3C3B1FCBBF0202053544D3332204698
:1032900034323920BFAAB7A2B0E5A1A30D0A0000BD
:1032A0000D0A20D5E2CAC7D2BBB8F6493243CDE2F7
:1032B000C9E8284154323443303229B6C1D0B4B2BF
:1032C000E2CAD4C0FDB3CC200D0A00000D0AC3BB76
:1032D000D3D0BCECB2E2B5BD4D505536303530B42C
:1032E000ABB8D0C6F7A3A10D0A0000001A1C02401B
:1032F0004E6F204D5055363035302064657465630F
:103300007465642120000000506C65617365206362
:103310006865636B207468652068617264776172A8
:103320006520636F6E6E656374696F6E21200000A7
:1033300050000020BCD3CBD9B6C8A3BA2538642529
:10334000386425386400000020202020CDD3C2DD61
:10335000D2C7253864253864253864002020202011
:10336000CEC2B6C825382E32660D0A0041636365A9
:103370006C65726174696F6E3A253864253864250E
:10338000386400004779726F202020202020202000
:103390003A253864253864253864000054656D701A
:1033A00065727475726520203A25382E32660000E9
:1033B000000000000000000000000000000000000D
:1033C00000000000000000000000000000000000FD
:1033D00000000000000000000000000000000000ED
:1033E0000000800180018001800180018001800156
:1033F00080018001800180018001800100000000C7
:1034000080018001000000000000000000000000BA
:1034100000000000CC00CC00CC00CC00CC00CC00E4
:10342000000000000000000000000000000000009C
:10343000000000000000000000000000000000008C
:10344000000000000000000000000000600C600CA4
:10345000600C30063006FE1FFE1F300638071803CA
:10346000FE1FFE1F180318038C018C018C01000045
:1034700000008000E003F80F9C0E8C1C8C188C0060
:103480009800F801E007800E801C8C188C189C189E
:10349000B80CF00FE0038000800000000000000086
:1034A0000000000000000E181B0C110C1106110684
:1034B000110311039B018E01C038C06C604460444D
:1034C000304430441844186C0C38000000000000F0
:1034D0000000E001F0033807180618063003F00179
:1034E000F000F8009C310E33061E061C061C063F39
:1034F000FC73F0210000000000000000000000004C
:10350000000000000C000C000C000C000C000C0073
:1035100000000000000000000000000000000000AB
:10352000000000000000000000000000000000009B
:103530000000000200038001C000C00060006000C5
:1035400030003000300030003000300030003000FB
:1035500060006000C000C0008001000300020000A5
:10356000000020006000C000800180010003000313
:10357000000600060006000600060006000600061B
:103580000003000380018001C000600020000000F3
:10359000000000000000000000000000C000C000AB
:1035A000D806F807E00130033807000000000000EB
:1035B000000000000000000000000000000000000B
:1035C00000000000000000000000000080018001F9
:1035D000800180018001FC3FFC3F8001800180016F
:1035E00080018001000000000000000000000000D9
:1035F00000000000000000000000000000000000CB
:1036000000000000000000000000000000000000BA
:103610000000800180010001000180000000000026
:10362000000000000000000000000000000000009A
:103630000000000000000000E007E00700000000BC
:10364000000000000000000000000000000000007A
:10365000000000000000000000000000000000006A
:10366000000000000000000000000000000000005A
:103670000000C000C00000000000000000000000CA
:103680000000000C000C000600060006000300030A
:1036900000038003800180018001C000C000C000E1
:1036A000600060000000000000000000000000005A
:1036B0000000E003F007380E180C0C180C180C185A
:1036C0000C180C180C180C180C180C18180C380EB8
:1036D000F007E00300000000000000000000000010
:1036E000000000018001C001F00198018801800103
:1036F00080018001800180018001800180018001C2
:1037000080018001000000000000000000000000B7
:103710000000E003F80F180C0C180C180018001823
:10372000000C000600038001C0006000300018009B
:10373000FC1FFC1F00000000000000000000000053
:103740000000E001F807180E0C0C0C0C000C000631
:10375000C003C007000C001800180C180C18180C37
:10376000F807E00300000000000000000000000077
:103770000000000C000E000F000F800DC00C600C4C
:10378000600C300C180C0C0CFC3FFC3F000C000CC7
:10379000000C000C00000000000000000000000011
:1037A0000000F80FF80F180018000C00EC03FC07DD
:1037B0001C0E001C0018001800180C181C0C180E09
:1037C000F807E00300000000000000000000000017
:1037D0000000C007F00F381C181818000C00CC03AC
:1037E000EC0F3C0E1C1C0C180C180C18181C380E76
:1037F000F007E003000000000000000000000000EF
:103800000000FC1FFC1F000C0006000600038003E4
:103810008001C001C000E000600060007000300066
:103820003000300000000000000000000000000038
:103830000000E003F007380E180C180C180C3806BE
:10384000F007F007180C0C180C180C180C18380C92
:10385000F80FE0030000000000000000000000007E
:103860000000E003F007380E1C0C0C180C180C18A4
:103870001C1C381EF81BE0190018000C000C1C0E54
:10388000F807F00100000000000000000000000048
:103890000000000000000000000000008001800126
:1038A0000000000000000000000000000000000018
:1038B0008001800100000000000000000000000006
:1038C00000000000000000000000000080018001F6
:1038D00000000000000000000000000000000000E8
:1038E0008001800100010001800000000000000054
:1038F00000000000000000000000000000000000C8
:103900000010001C800FE003F8001800F800E0032E
:10391000800F001C001000000000000000000000EC
:103920000000000000000000000000000000000097
:10393000F81F000000000000F81F00000000000059
:103940000000000000000000000000000000000077
:103950000000000000000000000000000000000067
:1039600008003800F001C007001F0018001FC00742
:10397000F001380008000000000000000000000016
:103980000000E003F80F180C0C180C180018000CBD
:10399000000600038001C000C000C000000000005D
:1039A000C000C00000000000000000000000000097
:1039B00000000000E00718180420C229224A114420
:1039C00009440944094409221113E20C024004206D
:1039D0001818E007000000000000000000000000D0
:1039E000000080038003C006C006C006600C600CA7
:1039F000301830183018F83FF83F1C700C600C601D
:103A000006C006C00000000000000000000000002A
:103A10000000FC03FC0F0C0C0C180C180C180C0C00
:103A2000FC07FC0F0C180C300C300C300C300C1850
:103A3000FC1FFC0700000000000000000000000068
:103A40000000C007F01F38381C300C7006600600FC
:103A50000600060006000600060006600C701C301A
:103A6000F01FE00700000000000000000000000060
:103A70000000FE03FE0F060E06180618063006307C
:103A80000630063006300630063006180618060ED8
:103A9000FE0FFE0300000000000000000000000018
:103AA0000000FC3FFC3F0C000C000C000C000C0064
:103AB000FC1FFC1F0C000C000C000C000C000C0088
:103AC000FC3FFC3F00000000000000000000000080
:103AD0000000F83FF83F1800180018001800180000
:103AE000F81FF81F18001800180018001800180018
:103AF0001800180000000000000000000000000096
:103B00000000E00FF83F3C780E6006E007C00300BD
:103B1000030003FE03FE03C007C006C00EC03CF056
:103B2000F83FE00F0000000000000000000000006F
:103B300000000C300C300C300C300C300C300C30E1
:103B4000FC3FFC3F0C300C300C300C300C300C3097
:103B50000C300C30000000000000000000000000ED
:103B600000008001800180018001800180018001CE
:103B7000800180018001800180018001800180013D
:103B80008001800100000000000000000000000033
:103B900000000006000600060006000600060006FB
:103BA000000600060006000600061806180638077C
:103BB000F003E00100000000000000000000000031
:103BC000000006300618060C060606038601C6002D
:103BD00066007600DE008E0106030606060C061857
:103BE0000630066000000000000000000000000039
:103BF000000018001800180018001800180018001D
:103C000018001800180018001800180018001800F4
:103C1000F81FF81F00000000000000000000000076
:103C200000000EE01EF01EF01EF036D836D836D852
:103C300036D866CC66CC66CCC6C6C6C6C6C6C6C6B0
:103C400086C386C3000000000000000000000000E2
:103C500000000C301C303C303C306C306C30CC30D0
:103C6000CC308C310C330C330C360C360C3C0C3C09
:103C70000C380C30000000000000000000000000C4
:103C80000000E007F81F1C380E70066003C003C078
:103C900003C003C003C003C003C006600E701C381D
:103CA000F81FE00700000000000000000000000016
:103CB0000000FC0FFC1F0C380C300C300C300C30AA
:103CC0000C18FC1FFC070C000C000C000C000C0076
:103CD0000C000C00000000000000000000000000CC
:103CE0000000E007F81F1C380E70066003E003C0F8
:103CF00003C003C003C003C007E006630E3F1C3CC3
:103D0000F83FE0F700C000000000000000000000E5
:103D10000000FE0FFE1F063806300630063006385B
:103D2000FE1FFE0706030606060C061806180630D8
:103D300006300660000000000000000000000000E7
:103D40000000E003F80F1C0C0C180C180C001C00F1
:103D5000F803E00F001E0038063006300E301C1C41
:103D6000F80FE00700000000000000000000000065
:103D70000000FE7FFE7F80018001800180018001C4
:103D8000800180018001800180018001800180012B
:103D90008001800100000000000000000000000021
:103DA00000000C300C300C300C300C300C300C306F
:103DB0000C300C300C300C300C300C300C3018182F
:103DC000F81FE007000000000000000000000000F5
:103DD000000003600630063006300C180C180C1872
:103DE000180C180C380E300630067007600360039C
:103DF000C001C00100000000000000000000000041
:103E000000000360C361C361C36166336633663318
:103E10006633663366336C1B6C1B6C1B2C1A3C1EA2
:103E2000380E380E00000000000000000000000006
:103E300000000FE00C7018303018700C600EC007D6
:103E400080038003C003E006700C301C18180C308F
:103E50000E6007E00000000000000000000000000D
:103E6000000003C006600C301C383818300C6006A7
:103E7000E007C00380018001800180018001800192
:103E80008001800100000000000000000000000030
:103E90000000FC7FFC7F006000300018000C000672
:103EA00000038001C0006000300018000C00060014
:103EB000FE7FFE7F00000000000000000000000008
:103EC0000000E003E003600060006000600060004C
:103ED00060006000600060006000600060006000E2
:103EE00060006000600060006000E003E00300002C
:103EF000000030003000600060006000C000C000C2
:103F0000C000C001800180018001000300030003A4
:103F10000006000600000000000000000000000095
:103F20000000E003E00300030003000300030003BC
:103F30000003000300030003000300030003000369
:103F400000030003000300030003E003E00300009C
:103F500000000000C001C001600360036003300680
:103F60003006180C180C00000000000000000000D3
:103F70000000000000000000000000000000000041
:103F80000000000000000000000000000000000031
:103F90000000000000000000000000000000000021
:103FA0000000FFFFFFFF0000000000000000000015
:103FB00000000C000C000C000C000C000C000000B9
:103FC00000000000000000000000000000000000F1
:103FD00000000000000000000000000000000000E1
:103FE000000000000000000000000000F003F807DF
:103FF0001C0C0C0C000FF00FF80C0C0C0C0C1C0F14
:10400000F80FF018000000000000000000000000A1
:10401000000018001800180018001800D803F80F46
:10402000380C181818181818181818181818380CE8
:10403000F80FD8030000000000000000000000009E
:10404000000000000000000000000000C003F007B6
:10405000300E180C1800180018001800180C300E3C
:10406000F007C00300000000000000000000000096
:10407000000000180018001800180018C01BF01FDE
:10408000301C181818181818181818181818301C78
:10409000F01FC01B00000000000000000000000036
:1040A000000000000000000000000000C003F00F4E
:1040B000300C1818F81FF81F180018003818301C9A
:1040C000F00FC0070000000000000000000000002A
:1040D0000000800FC00FC000C000C000F007F00754
:1040E000C000C000C000C000C000C000C000C000D0
:1040F000C000C00000000000000000000000000040
:10410000000000000000000000000000E00DF80FBB
:10411000180E0C0C0C0C0C0C0C0C0C0C0C0C180EC3
:10412000F80FE00D000C0C0C1C06F807F001000065
:10413000000018001800180018001800D807F80F21
:10414000381C1818181818181818181818181818CB
:1041500018181818000000000000000000000000FF
:104160000000C000C000000000000000C000C0004F
:10417000C000C000C000C000C000C000C000C0003F
:10418000C000C000000000000000000000000000AF
:104190000000C000C000000000000000C000C0001F
:1041A000C000C000C000C000C000C000C000C0000F
:1041B000C000C000C000C000C000F80078000000CF
:1041C00000000C000C000C000C000C000C0C0C0689
:1041D0000C038C01CC006C00FC009C018C030C03D4
:1041E0000C060C0C000000000000000000000000A5
:1041F0000000C000C000C000C000C000C000C0007F
:10420000C000C000C000C000C000C000C000C000AE
:10421000C000C0000000000000000000000000001E
:104220000000000000000000000000007C3CFF7E59
:10423000C7E383C183C183C183C183C183C183C1F8
:1042400083C183C1000000000000000000000000E6
:104250000000000000000000000000009807F80FB8
:10426000381C1818181818181818181818181818AA
:1042700018181818000000000000000000000000DE
:10428000000000000000000000000000C003F00F6C
:10429000300C181818181818181818181818300C86
:1042A000F00FC0030000000000000000000000004C
:1042B000000000000000000000000000D803F80F1C
:1042C000380C181818181818181818181818380C46
:1042D000F80FD80318001800180018001800000084
:1042E000000000000000000000000000C01BF01FE4
:1042F000301C181818181818181818181818301C06
:10430000F01FC01B0018001800180018001800004B
:10431000000000000000000000000000B007F003F3
:1043200070003000300030003000300030003000CD
:10433000300030000000000000000000000000001D
:10434000000000000000000000000000E003F00397
:10435000380E180C3800F003C007000C180C380E8B
:10436000F007E00300000000000000000000000073
:10437000000000008000C000C000C000F007F0078F
:10438000C000C000C000C000C000C000C000C0002D
:10439000C0078007000000000000000000000000CF
:1043A00000000000000000000000000018181818AD
:1043B0001818181818181818181818181818381C59
:1043C000F01FE019000000000000000000000000E5
:1043D0000000000000000000000000000C18180C95
:1043E000180C180C300630063006600360036003BA
:1043F000C001C0010000000000000000000000003B
:10440000000000000000000000000000C141C141A8
:10441000C3616363636363633636363636361C1CAA
:104420001C1C1C1C0000000000000000000000001C
:104430000000000000000000000000001C38381CD4
:10444000300C600660036003600360036006300C9C
:10445000381C1C38000000000000000000000000B4
:1044600000000000000000000000000018303018BC
:1044700030187018600C600CE00CC006C006800399
:104480008003800380018001C001F0007000000003
:10449000000000000000000000000000FC1FFC1FE6
:1044A000000C000600038001C0006000300018000E
:1044B000FC1FFC1F000000000000000000000000C6
:1044C000000000038001C000C000C000C000C000A8
:1044D000C00060006000300060004000C000C0000C
:1044E000C000C000C000C000800100030000000048
:1044F0000000800180018001800180018001800135
:1045000080018001800180018001800180018001A3
:104510008001800180018001800180018001000014
:1045200000006000C000C0018001800180018001A6
:1045300080010003000300060003000180018001E8
:104540008001800180018001C00060000000000047
:10455000000000000000000000000000000000005B
:10456000F010F81F080F000000000000000000001D
:10457000000000000000000000000000000000003B
:104580003C3C2D4932432D4552524F522D3E3E2048
:104590004D505536303530206465637465637465FD
:1045A00064206572726F72210D0ABCECB2E2B2BB7C
:1045B000B5BD4D505536303530C4A3BFE9A3ACC7A7
:1045C000EBBCECB2E9C4A3BFE9D3EBBFAAB7A2B07E
:1045D000E5B5C4BDD3CFDF0A00000000FC450008EC
:1045E0000000002050000000902700084C46000802
:1045F0005000002010040000A02700080095BA0A0F
:104600000000000000000000010203040607080982
:104610000000000001020304010203040607080968
:1046200000000000FFFFFF00000000D000000000BD
:10463000000000000000000000000000B03300088F
:0C4640001000180037000000000000000F
:04000005080001AD41
:00000001FF
